:02000000B6291F
:0E000600213083120313FD00FD0B07280800B4
:06001400000000000800DE
:10001A000F3083120313FC004730FD00FD0B132839
:0A002A00FC0B132800000000080082
:1000340083160313B51B21288312881223288312E5
:1000440088168316351B2928831208122B2883123D
:1000540008168316B51A312883128811332883129F
:1000640088158316351A3928831208113B28831200
:10007400081583162B184128831208144328831269
:10008400081088140A2088108316B5194C28831286
:1000940088124E2883128816831635195428831221
:1000A40008125628831208168316B5185C28831282
:1000B40088115E28831288158316351864288312E4
:1000C400081166288312081583162B186C288312CE
:1000D40008146E288312081088140A2088108316C6
:0C00E4002B1C76280D2077280320080034
:1000F000831603132B103408B5001A2083162B1413
:020100000800F5
:0E010200831203136F088A006E088200080043
:10011000831203138F018E01101406189428643083
:100120000E02031894288D280E08633C03189A28A1
:10013000F001AB288F018E01061CA32864300E024B
:100140000318A3289C280E08633C0318A928F00173
:08015000AB280130F0000800AB
:1001580083160313300884008001F2018030720690
:10016800F0008030083A70020318F02883128F01DB
:100178008E010618C7280E08643C0318C6280130EB
:10018800F000F128BD288F018E01061CD3280E0827
:10019800643C0318D2280130F000F128C9280E0861
:1001A800323C0318EE287208073CF0007008F10092
:1001B8000130F00071080319E528F00D7010FF3EBA
:1001C800DF288316300884000008F0043008840013
:0C01D80070088000F20AB228F001080054
:1001E4000429803083160313B0001729C030B000EF
:1001F40017299430B0001729D430B0001729803063
:10020400B0001729831603133008013A0319F328A1
:100214003008023A0319F8283008033A0319FB2876
:100224003008043A0319FE2801293103F00030088C
:10023400F0077008B0007008B5001A2083162B1060
:10024400B301330832078400000803193129330845
:10025400320784000008B4007820B30A23292B1441
:02026400080090
:1002660081208A110A128000840AEE0A0319EF0A15
:08027600F003031D3329080009
:10027E0083120313F8010830FC00700DF80D74089A
:10028E00F80203184C29F8070310F00DFC0B442953
:02029E00080056
:1002A000831603130610831206104130FC00EE3053
:1002B000FD00FD0B5929FC0B5929000006141030D4
:0E02C000FD00FD0B61290000831606140800E6
:1002CE00831603138810081008118811081288125B
:1002DE0083128810081088120812881108110D2038
:1002EE000D200D208815081588140A2088100D2061
:1002FE0088140A2088100D2088140A2088100D20DA
:10030E00081188140A2088100D2088140A208810DD
:10031E008811881688140A2088100D208812081556
:10032E0088140A208810081188140A2088100D20BD
:10033E0088140A208810081588140A2088100D20A9
:10034E00081188140A2088108816081688150815B2
:0E035E0088140A2088100D2083162B14080026
:10036C003A238316031388178610061183128610FE
:10037C000611103090008F018E0167210C30B500F2
:10038C001A2001308316B5001A20881F002AEC01B0
:10039C00ED0180306D06F00080307002031DD8290D
:1003AC000A306C020318002A061586140230FB0072
:1003BC000430FC00BA30FD00FD0BE229FC0BE229F5
:1003CC00FB0BE2290000061186100230FB00043002
:1003DC00FC00BA30FD00FD0BF129FC0BF129FB0BE5
:1003EC00F12900000615861406118610EC0A031973
:1003FC00ED0ACF29881B042A86100611502188206B
:10040C0070080319B92AAA308316B000AC208312E5
:10041C0003137008031D372AAD308316B000AC20CF
:10042C00831203137008031D372AAC308316B000F7
:10043C00AC20831203137008031D372AAE308316C9
:10044C00B000AC20831203137008031D372AAF30A1
:10045C008316B000AC20831203137008031D372AD7
:10046C00442A01308316B5001A2001308316B000DF
:10047C000530B100A030B200F220B82A83162D0846
:10048C002A07F000F1010318F10A2C08F0070318F1
:10049C00F10A2E08F0070318F10AFF307005F2007C
:1004AC007108F3000030F30500307306031D602A59
:1004BC0072082F06031DAD2A0A30F4002C08F00038
:1004CC003F2130307007E3000A30F40083162C080B
:1004DC00F0003F217808F00030307007E4000A305B
:1004EC00F40083162E08F0003F2130307007E60030
:1004FC000A30F40083162A08F0003F2130307007D0
:10050C00B7000A30F40083162A08F0003F2178085F
:10051C00F00030307007B8000A30F40083162D0854
:10052C00F0003F2130307007BA00DF30E7000130B7
:10053C008316B0000130B1005C30B200F220023002
:10054C00B0000130B1003030B200F220B82A0130D6
:10055C00B5001A2001308316B0000130B1002030F4
:10056C00B200F220CC2A83160130B5001A200130DB
:10057C008316B0000330B1004030B200F2200230DC
:10058C00B0000130B1004C30B200F22083121010D8
:10059C000B30FB002630FC005D30FD00FD0BD42A37
:1005AC00FC0BD42AFB0BD42A00000000CB29DD2A3B
:10067400203084004C3083120313F000E330EE008A
:100684000230EF003321A03084000A3083120313B8
:0E069400F0002F30EE000330EF00332108009D
:1005C60043346834653463346B34733475346D3452
:1005D60020344534723472346F347234213400342A
:1005E600523448342034203420343D3420343034DE
:1005F60030342E3430342034253420342034003442
:100606004E346F34203472346534733470346F343E
:080616006E34733465340034C6
:10061E00663472346F346D34203474346834653417
:10062E002034733465346E3473346F347234003462
:10063E00543465346D34703420343D3420343034C9
:10064E0030342E34303420344334203420340034CB
:10065E00543469346D34653420346F3475347434E5
:04066E0021340034FF
:02400E004A2F37
:00000001FF
