:02000000002AD4
:06000600000000000800EC
:10000C000F3083120313FC004730FD00FD0B0C284E
:0A001C00FC0B0C2800000000080097
:0E002600213083120313FD00FD0B1728080084
:1000340083160313AB1B2128831206102328831273
:10004400061483162B1B2928831286102B2883124F
:1000540086148316AB1A31288312061133288312AF
:10006400061583162B1A3928831286113B2883120E
:100074008615831624184128831286164328831272
:1000840086120616032006128316AB194C28831217
:1000940006104E288312061483162B195428831233
:1000A40086105628831286148316AB185C28831294
:1000B40006115E288312061583162B1864288312F2
:1000C4008611662883128615831624186C288312D9
:1000D40086166E28831286120616032006128316CD
:0C00E400241C7628062077281320080032
:1000F00083120313F8010830FC00700DF80D74082A
:10010000F80203188528F8070310F00DFC0B7D2872
:020110000800E5
:100112008316031324102A08AB001A208316241412
:020122000800D3
:0E012400831203136F088A006E088200080021
:1001320083160313A801033028020318A7282808EE
:100142002707840020308000A80A9C282808270757
:1001520084008001A80328082707A9000A30F400B8
:100162002608F00078207808F0003030F007831677
:1001720029088400700880000A30F4002608F00084
:10018200782070088316A6007008003A031DCA285A
:08019200CC28A803AC280800EA
:10019A00831603130612861286110611861006109C
:1001AA008312061286120610861006118611062080
:1001BA0006200620061586150616032006120620B6
:1001CA00061603200612062006160320061206202B
:1001DA0086110616032006120620061603200612AA
:1001EA0006110614061603200612062006108615A6
:1001FA00061603200612861106160320061206208A
:10020A000616032006128615061603200612062075
:10021A00861106160320061206148614061586157C
:0E022A00061603200612062083162414080070
:1002380083120313A0010830200203185529081956
:10024800262923291330FD00FD0B28290000000072
:10025800081940292008073CF0007008F100013017
:10026800F000710803193C29F00D7010FF3E362983
:10027800F0097008A30553292008073CF00070080E
:10028800F1000130F000710803194E29F00D7010CB
:10029800FF3E48297008A304081D53295029A00AC5
:0402A8001F29080002
:1002AC006829803083160313A6007B29C030A60072
:1002BC007B299430A6007B29D430A6007B29803082
:1002CC00A6007B29831603132608013A0319572924
:1002DC002608023A03195C292608033A03195F29F8
:1002EC002608043A0319622965292703F000260819
:1002FC00F0077008A6007008AB001A2083162410B3
:10030C00A901290828078400000803199529290840
:10031C00280784000008AA008920A90A8729241428
:02032C000800C7
:10032E00831603130811831208112F30FC00BF30FF
:10033E00FD00FD0BA029FC0BA029000000000815F4
:10034E001330FD00FD0BA9290000000083160815CF
:02035E00080095
:1003600083160313A701A8012608F2002608F3004C
:10037000720884000008203A031DC32927082804B6
:10038000031DC329D0290130A7000030A80072083E
:1003900084000008F0007308840070088000F30AED
:1003A0007208F100F20A710884000008003A031D87
:0803B000B8292608F00008003E
:1003B80092208A110A128000840AEE0A0319EF0AB1
:0803C800F003031DDC2908000D
:1003D00083120313A1011A30FD00FD0BED2900006B
:1003E0000819FF293530FD00FD0BF429081DFA29F5
:1003F0000130A1001A30FD00FD0BFC2900000800AF
:10040000202383160313881787018312870183161D
:10041000860183128601CD208312881F282A871720
:100420000230FB000430FC00BA30FD00FD0B162A40
:10043000FC0B162AFB0B162A000087131A30FC004F
:10044000F830FD00FD0B222AFC0B222A00000714C5
:10045000881B2C2A071087130C308316AB001A2038
:1004600001308316AB001A209721E8212108013AB8
:10047000031DAB2A1C212308A2001C212308E10034
:100480001C212308E0001C212308DF001C21230875
:10049000ED0061082207F000F1010318F10A60087D
:1004A000F0070318F10A5F087007F20071080318DB
:1004B000013EF30000307306031D602A7208230614
:1004C000031D982A62308316A5000130A60006306D
:1004D000A7002508A80056213430A5000230A60048
:1004E0000230A7002508A800562183126008831651
:1004F000A600A030A7009920A030A600B021700867
:10050000A8000130A6000B30A70056218312220854
:100510008316A600A030A7009920A030A600B02125
:100520007008A8000230A6000B30A7005621AA2AA6
:1005300083160C30AB001A2001308316AB001A2052
:1005400024308316A5000130A6000130A70025083D
:10055000A8005621BE2A83165330A5000130A600FC
:100560000330A7002508A80056214330A50002301B
:10057000A6000130A7002508A80056210330FB0083
:100580000830FC007730FD00FD0BC42AFC0BC42AA8
:08059000FB0BC42A0C2ACB2A44
:10064000203084004E3083120313F000D130EE00CE
:080650000230EF00DC2108007C
:0205A200003423
:0205A400003421
:0205A60000341F
:0205A80000341D
:1005AA0043346834653463346B34203473347534BB
:1005BA006D3420346534723472346F3472340034DA
:1005CA00483475346D346934643469347434793434
:0E05DA003A34203420342E34303425340034AA
:1005E800663472346F346D3420347434683465344E
:1005F8002034733465346E3473346F347234003499
:100608004E346F34203472346534733470346F343C
:080618006E34733465340034C4
:020620000034A4
:020622000034A2
:020624000034A0
:10062600543465346D3470343A34203420342E34E6
:06063600303443340034AF
:02063C00003488
:02400E004A2F37
:00000001FF
