:020000000328D3
:100006003F3083120313A2000630A3005B30A40026
:100016004F30A5006630A6006D30A7007C30A800E2
:100026000730A9007F30AA006F30AB00AC01AD01EC
:10003600FF30831688008601831286018801081C1A
:1000460040280330FB000830FC007730FD00FD0B34
:100056002A28FC0B2A28FB0B2A28081C402880305B
:100066002D06F00080307002031D3B2809302C025B
:1000760003184028AC0A0319AD0A881C5F28033010
:10008600FB000830FC007730FD00FD0B4828FC0B18
:100096004828FB0B4828881C5F288030F0008030F9
:1000A6002D067002031D59282C08003C03185F28F2
:1000B6000130AC02031CAD032C08223E840000086C
:0600C600860022286528D7
:02400E004A2F37
:00000001FF
