:020000003F2996
:10000600710DF80DF90D7408F8027508031C750FCB
:10001600F902F00DF10D0F30FC00710DF80DF90D20
:100026007408701C1C28F8027508031C750FF90269
:100036002128F80775080318750FF907F00DF10D5B
:10004600FC0B102870182D287408F807750803187B
:08005600750FF9070000080016
:10005E00831203137408003A031D3E287508003AF4
:10006E00031D3E28FF30F0007F30F10097288312E9
:10007E000313FD01F901F80171087004031900342E
:10008E0071087506FA00FA1BFD09FB01F51F5428CD
:10009E00F409F509F40A0319F50AF11F5B28F009B2
:1000AE00F109F00A0319F10A71087504FA00FA1B36
:1000BE00702803207B188328FD1F0034F009F109F6
:1000CE00F00A0319F10AF809F909F80A0319F90AED
:1000DE000034F51F7F28F11B7B287108F90070088A
:1000EE00F800F101F0016328F101F001F00A00348B
:1000FE00F109F009FB0A6028F80A0319F90A7408D5
:10010E007802031D632875087902031D6328F9011F
:10011E00F801F00A0319F10AF11F63280000FF34F9
:02012E000800C7
:0E0130008312031331088A0030088200080091
:10013E0083120313071DB328071DB328803023062F
:10014E00F00080307002031DAE28633022020318C7
:10015E00B328A20A0319A30A871DC628871DC6281D
:10016E008030F000803023067002031DC028220864
:10017E00003C0318C6280130A202031CA3030A3058
:10018E00F4000030F5002208F0002308F1002F20C3
:10019E007008B4007108B5000A30F4000030F500A4
:1001AE002208F0002308F1002F207808F0007908CB
:1001BE00F1007008B6007108B700A401A5018030E7
:1001CE002506F00080307002031DEF280A3024024D
:1001DE000318152907143408263E840000088600EB
:1001EE001A30FC00F830FD00FD0BFB28FC0BFB2841
:1001FE000000071087143608263E8400000886008B
:10020E001A30FC00F830FD00FD0B0B29FC0B0B29FE
:10021E0000008710A40A0319A50AE6282208F00098
:06022E002308F1000800A6
:1002340098208A110A128000840AB00A0319B10AAC
:08024400F003031D1A29080054
:10024C0083160313860183128601831607158715FF
:10025C0087170710871083128701831609148312DE
:10026C000910831608148812081388138312880146
:02027C00080078
:10027E0083120313A001A101A201A301A401A501F0
:10028E00C030A600F930A700A430A800B030A900F5
:10029E009930AA009230AB008230AC00F830AD003D
:1002AE008030AE009030AF002621871B5F29881268
:1002BE009F207008B2007108B300871FBC298816F2
:1002CE00081CBC2980302106F00080307002031D0E
:1002DE0072296330200203187729A00A0319A10A94
:1002EE0000302106031D7D2963302006031D812960
:1002FE00A001A10133082106031D8729200832061B
:10030E00031DBC29871FBC29881208170B30FB0060
:10031E002630FC005D30FD00FD0B9329FC0B93296C
:10032E00FB0B932900000000081388170B30FB000D
:10033E002630FC005D30FD00FD0BA329FC0BA3292C
:10034E00FB0BA32900000000881388160B30FB005E
:10035E002630FC005D30FD00FD0BB329FC0BB329EC
:0E036E00FB0BB3290000000089295C29BD2982
:02400E004A2F37
:00000001FF
